:040000005FEF02F0BC
:1000080000C017F00CC016F00DC015F0A1A442D026
:100018002D2A8386820E0C6EDD0E0D6E0D2EFED7F8
:100028000C2EFCD700000000839083922D50020A0A
:1000380030E1838A8388D298A194A09483862E6A1B
:100048002F6A010E2F5C02E1F40E2E5C0BE2020E09
:100058000C6E4B0E0D6E0D2EFED70C2EFCD72E4AB5
:100068002F2AEFD7040083962E6A2F6A010E2F5C81
:1000780002E1F40E2E5C0BE2020E0C6E4B0E0D6EBE
:100088000D2EFED70C2EFCD72E4A2F2AEFD70400B0
:10009800D5D7BCD717C000F016C00CF015C00DF0AE
:0200A800110045
:1000AA00FF0E356EFF0E366EFF0E376EFF0E386E80
:1000BA00FF0E316EFF0E326E000E336E000E346E7E
:1000CA00FF0E3D6EFF0E3E6E000E3F6E000E406E3E
:1000DA00FF0E396EFF0E3A6E000E3B6E000E3C6E3E
:1000EA00AC8A900EAB6E948E949C9EAA03D0AECF2F
:0600FA0000F0FBD712002C
:10010000ABA204D0AC9AAC8AAB98AB88ABA404D0B9
:0A011000AECF30F0AC9AAC8A1200BA
:10011A0083A437D0140E2C5C2AE2839A83988382B4
:10012A008390400E1B6E1C6A400E226E236A186A68
:10013A00070E185C10E29EB802D0DDDFFCD71D0E58
:10014A00E96E000EEA6E1850E926D8B0EA2AEECF18
:10015A00ADFF182AEDD7186A0D0E0C6EFB0E0D6E48
:10016A000D2EFED70C2EFCD7000000002C2A2C5096
:10017A00140A06E1276A286A838A8388839283900D
:10018A005ED182B617D081B615D082B213D081B8AB
:10019A0011D080BC0FD084B20DD082B40BD081B400
:1001AA0009D082B007D084B005D080BE03D084B411
:1001BA0001D016D182A603D081A601D039D082A659
:1001CA0003D081A401D034D082A403D081A601D067
:1001DA002FD082A403D081A401D02AD082A203D036
:1001EA0081A801D025D082A203D084A001D020D03A
:1001FA0082A003D081A801D01BD082A003D084A002
:10020A0001D016D080AC03D084A201D011D080AC2A
:10021A0003D084A401D00CD080AE03D084A201D034
:10022A0007D080AE03D084A401D002D0006A02D0E5
:10023A00010E006E0052D8A4D2D083922C6A296A89
:10024A002A6A2B2A839A8398246A256A276A286A43
:10025A00016A83B4012A060E006E01C003F0005041
:10026A0004E003360390FF0FFBD7026A82B6022A24
:10027A00050E016E02C000F0015004E00036009045
:10028A00FF0FFBD700500326026A81B6022A02C07A
:10029A0000F00036009000360090003600900036DC
:1002AA00009000500326026A82B2022A02C000F0BD
:1002BA000036009000360090003600900050032669
:1002CA00026A81B8022A02C000F0003600900036A5
:1002DA00009000500326026A80BC022A02C000F085
:1002EA000036009000500324016E006A84B2002A8E
:1002FA0000500124046E04C01BF0016A82B4012A72
:10030A00050E006E01C003F0005004E003360390AE
:10031A00FF0FFBD7026A81B4022A02C000F000363E
:10032A000090003600900036009000360090005091
:10033A000326026A82B0022A02C000F00036009048
:10034A00003600900036009000500326026A84B0FE
:10035A00022A02C000F000360090003600900050D9
:10036A000326026A80BE022A02C000F0003600900C
:10037A0000500324016E006A84B4002A015000264A
:10038A0000C01CF004C022F000C023F0186A070E57
:10039A00185C10E29EB802D0AEDEFCD71D0EE96EE4
:1003AA00000EEA6E1850E926D8B0EA2AEECFADFF61
:1003BA00182AEDD7186A0A0E2B5C02E2838001D054
:1003CA0083902B50140A01E12B6A0D0E0C6EFB0E62
:1003DA000D6E0D2EFED70C2EFCD7000000002FD07C
:1003EA001B50400A2CE083928390FF0E226E236AF0
:1003FA00000E2A5C02E11E0E295C21E2186A070E31
:10040A00185C10E29EB802D076DEFCD71D0EE96EAB
:10041A00000EEA6E1850E926D8B0EA2AEECFADFFF0
:10042A00182AEDD7186A0D0E0C6EFB0E0D6E0D2EE6
:10043A00FED70C2EFCD700000000294A2A2A1200F7
:10044A000900F5CFE6FF0006FBE10106F9E112001B
:10045A007E6A7F6A928C928E938093849386938825
:10046A009480948294849486959095929584959696
:10047A009598959A968096829684806A816A826A0D
:10048A00836A846A120ED26EF28CF28EA084C290B3
:10049A007B9E7A9E190EAF6EAC8402DE820E0C6EC3
:1004AA00DD0E0D6E0D2EFED70C2EFCD700000000BF
:0404BA008380120029
:1004BE00D9EC02F0570ED36E9F0E9B6EC7DF550E12
:1004CE001D6E26C01EF01AC01FF019C020F0110EAE
:1004DE00216E226A236A550E246E2E6A2F6A000E32
:1004EE002F5C02E1640E2E5C0CE2020E0C6E4B0EC3
:1004FE000D6E0D2EFED70C2EFCD704002E4A2F2A81
:10050E00EED72E6A2F6A02DE0400244A252A2550D1
:10051E00070802E12450D00837E2246A256A274AE8
:10052E00282A2850010802E12750E0082DE2838A8C
:10053E00838883902E4A2F2A000E2F5C02E1030E31
:10054E002E5C02E2838201D08392000E006E2F5049
:10055E00005C02E12E50320802E22E6A2F6A0D0E66
:10056E000C6EFB0E0D6E0D2EFED70C2EFCD7000062
:10057E00000004002850030A02E1E80E271804E1E7
:0C058E00E10E276E010E286EBED7FFD7CD
:1005B20010EE18F0180E006E010E016E9A0EF66E15
:0E05C200050EF76E000EF86E25EC02F012002A
:01059A000060
:01059B002E31
:01059C002D31
:01059D00005D
:01059E00005C
:07059F00010101010101014E
:0205A600000053
:0105A80075DD
:0205A900000050
:0205AB0000004E
:0105AD00004D
:0105AE00004C
:0105AF00004B
:0205B000000049
:020000040030CA
:0D000100481111FF8180FF0FC00FE00F407C
:00000001FF
