:0400000045EF01F0D7
:1000080000C016F001C015F09EAA35D0180EE16E9A
:10001800000EE26E1750E126D8B0E22AAECFE6FF16
:10002800180EE96E000EEA6E1750E926D8B0EA2AD3
:10003800EE50550A06E11750000803E2176A550EFC
:10004800186E172A1750070A15E1176A1850550A2B
:1000580011E1195025180EE11A5026180BE11B5012
:10006800201808E11C50110A05E1010E1F6E236AD1
:10007800246A90D89E9A16C000F015C001F01100AD
:10008800FF0E2F6EFF0E306EFF0E316EFF0E326EBA
:10009800FF0E2B6EFF0E2C6E000E2D6E000E2E6EB8
:1000A800FF0E336EFF0E346E000E356E000E366E88
:1000B800FF0E276EFF0E286E000E296E000E2A6EA8
:1000C800AC8A900EAB6E948E949C9EAA03D0AECF51
:0600D80000F0FBD712004E
:0C00DE00806A816A826A836A846A120068
:1000EA003850000A28E113D0808C848223D0828081
:1000FA00848220D0828684821DD0838084821AD012
:10010A008386848217D08288848214D013D0375091
:10011A00010AEAE03750020AEAE03750040AEAE044
:10012A003750080AEAE03750100AEAE03750200A46
:10013A00EAE0ECD72DD019D0808C8484848228D030
:10014A008280808E848224D082868282848220D099
:10015A008380828484821CD083868382848218D09E
:10016A0082888384848214D013D03750010AE4E051
:10017A003750020AE5E03750040AE6E03750080A29
:10018A00E7E03750100AE8E03750200AE9E0ECD7F8
:02019A00120051
:10019C00A0DF400E1D14016E0150000806E2FF0E98
:1001AC001D5C03E2828A84822DD01D50FF0A02E17D
:1001BC0090DF28D0010E226E800E225C0EE22250BF
:1001CC001D14016E0150000805E2216A22C037F0AF
:1001DC00386A85DF22362290EFD7010E226E400E50
:1001EC00225C10E222501E14016E0150000807E23E
:1001FC00010E216E22C037F0010E386E70DF2236F0
:06020C002290EDD7120064
:100212000900F5CFE6FF0006FBE10106F9E1120055
:100222007E6A7F6A94989596959495929590949605
:10023200949494929490929C929E9694949A96926C
:100242009598959A806A816A826A836A846AF28C36
:100252009D8AF28ED08EC2907B9E7A9EFC0ECA6ED2
:10026200CC6AFF0ECB6E190EAF6EAC840CDF820E21
:100272000C6EDD0E0D6E0D2EFED70C2EFCD700007F
:0802820000008398839A12002A
:10028A006CEC01F0C9DF570ED36E9F0E9B6E234AAA
:10029A00242A24504E0A02E1200E23180DE1CC6ACA
:1002AA00236A246A1F50000A06E11D50400A02E030
:0E02BA00176A10DF01D01F6A0400E9D7FFD7D2
:1002D80010EE17F0100E006E010E016EC80EF66ECD
:0E02E800020EF76E000EF86E09EC01F0120027
:0102C8000035
:0702C90030303030303030DE
:0102D000002D
:0102D1002EFE
:0102D200002B
:0102D300002A
:0202D400000028
:0102D60075B2
:0102D7002DF9
:020000040030CA
:0D000100481111FF8181FF0FC00FE00F407B
:00000001FF
